{
  "_format": "hh-sol-artifact-1",
  "contractName": "MyEpicGame",
  "sourceName": "contracts/MyEpicGame.sol",
  "abi": [
    {
      "inputs": [
        {
          "internalType": "string[]",
          "name": "characterNames",
          "type": "string[]"
        },
        {
          "internalType": "string[]",
          "name": "characterImageURIs",
          "type": "string[]"
        },
        {
          "internalType": "uint256[]",
          "name": "characterHp",
          "type": "uint256[]"
        },
        {
          "internalType": "uint256[]",
          "name": "characterAttackDmg",
          "type": "uint256[]"
        },
        {
          "internalType": "string",
          "name": "bossName",
          "type": "string"
        },
        {
          "internalType": "string",
          "name": "bossImageURI",
          "type": "string"
        },
        {
          "internalType": "uint256",
          "name": "bossHp",
          "type": "uint256"
        },
        {
          "internalType": "uint256",
          "name": "bossAttackDamage",
          "type": "uint256"
        }
      ],
      "stateMutability": "nonpayable",
      "type": "constructor"
    },
    {
      "anonymous": false,
      "inputs": [
        {
          "indexed": true,
          "internalType": "address",
          "name": "owner",
          "type": "address"
        },
        {
          "indexed": true,
          "internalType": "address",
          "name": "approved",
          "type": "address"
        },
        {
          "indexed": true,
          "internalType": "uint256",
          "name": "tokenId",
          "type": "uint256"
        }
      ],
      "name": "Approval",
      "type": "event"
    },
    {
      "anonymous": false,
      "inputs": [
        {
          "indexed": true,
          "internalType": "address",
          "name": "owner",
          "type": "address"
        },
        {
          "indexed": true,
          "internalType": "address",
          "name": "operator",
          "type": "address"
        },
        {
          "indexed": false,
          "internalType": "bool",
          "name": "approved",
          "type": "bool"
        }
      ],
      "name": "ApprovalForAll",
      "type": "event"
    },
    {
      "anonymous": false,
      "inputs": [
        {
          "indexed": false,
          "internalType": "address",
          "name": "sender",
          "type": "address"
        },
        {
          "indexed": false,
          "internalType": "uint256",
          "name": "newBossHp",
          "type": "uint256"
        },
        {
          "indexed": false,
          "internalType": "uint256",
          "name": "newPlayerHp",
          "type": "uint256"
        }
      ],
      "name": "AttackComplete",
      "type": "event"
    },
    {
      "anonymous": false,
      "inputs": [
        {
          "indexed": false,
          "internalType": "address",
          "name": "sender",
          "type": "address"
        },
        {
          "indexed": false,
          "internalType": "uint256",
          "name": "tokenId",
          "type": "uint256"
        },
        {
          "indexed": false,
          "internalType": "uint256",
          "name": "characterIndex",
          "type": "uint256"
        }
      ],
      "name": "CharacterNFTMinted",
      "type": "event"
    },
    {
      "anonymous": false,
      "inputs": [
        {
          "indexed": true,
          "internalType": "address",
          "name": "from",
          "type": "address"
        },
        {
          "indexed": true,
          "internalType": "address",
          "name": "to",
          "type": "address"
        },
        {
          "indexed": true,
          "internalType": "uint256",
          "name": "tokenId",
          "type": "uint256"
        }
      ],
      "name": "Transfer",
      "type": "event"
    },
    {
      "inputs": [
        {
          "internalType": "address",
          "name": "to",
          "type": "address"
        },
        {
          "internalType": "uint256",
          "name": "tokenId",
          "type": "uint256"
        }
      ],
      "name": "approve",
      "outputs": [],
      "stateMutability": "nonpayable",
      "type": "function"
    },
    {
      "inputs": [],
      "name": "attackBoss",
      "outputs": [],
      "stateMutability": "nonpayable",
      "type": "function"
    },
    {
      "inputs": [
        {
          "internalType": "address",
          "name": "owner",
          "type": "address"
        }
      ],
      "name": "balanceOf",
      "outputs": [
        {
          "internalType": "uint256",
          "name": "",
          "type": "uint256"
        }
      ],
      "stateMutability": "view",
      "type": "function"
    },
    {
      "inputs": [],
      "name": "bigBoss",
      "outputs": [
        {
          "internalType": "string",
          "name": "name",
          "type": "string"
        },
        {
          "internalType": "string",
          "name": "imageURI",
          "type": "string"
        },
        {
          "internalType": "uint256",
          "name": "hp",
          "type": "uint256"
        },
        {
          "internalType": "uint256",
          "name": "maxHp",
          "type": "uint256"
        },
        {
          "internalType": "uint256",
          "name": "attackDamage",
          "type": "uint256"
        }
      ],
      "stateMutability": "view",
      "type": "function"
    },
    {
      "inputs": [],
      "name": "checkIfUserHasNFT",
      "outputs": [
        {
          "components": [
            {
              "internalType": "uint256",
              "name": "characterIndex",
              "type": "uint256"
            },
            {
              "internalType": "string",
              "name": "name",
              "type": "string"
            },
            {
              "internalType": "string",
              "name": "imageURI",
              "type": "string"
            },
            {
              "internalType": "uint256",
              "name": "hp",
              "type": "uint256"
            },
            {
              "internalType": "uint256",
              "name": "maxHp",
              "type": "uint256"
            },
            {
              "internalType": "uint256",
              "name": "attackDamage",
              "type": "uint256"
            }
          ],
          "internalType": "struct MyEpicGame.CharacterAttributes",
          "name": "",
          "type": "tuple"
        }
      ],
      "stateMutability": "view",
      "type": "function"
    },
    {
      "inputs": [],
      "name": "getAllDefaultCharacters",
      "outputs": [
        {
          "components": [
            {
              "internalType": "uint256",
              "name": "characterIndex",
              "type": "uint256"
            },
            {
              "internalType": "string",
              "name": "name",
              "type": "string"
            },
            {
              "internalType": "string",
              "name": "imageURI",
              "type": "string"
            },
            {
              "internalType": "uint256",
              "name": "hp",
              "type": "uint256"
            },
            {
              "internalType": "uint256",
              "name": "maxHp",
              "type": "uint256"
            },
            {
              "internalType": "uint256",
              "name": "attackDamage",
              "type": "uint256"
            }
          ],
          "internalType": "struct MyEpicGame.CharacterAttributes[]",
          "name": "",
          "type": "tuple[]"
        }
      ],
      "stateMutability": "view",
      "type": "function"
    },
    {
      "inputs": [
        {
          "internalType": "uint256",
          "name": "tokenId",
          "type": "uint256"
        }
      ],
      "name": "getApproved",
      "outputs": [
        {
          "internalType": "address",
          "name": "",
          "type": "address"
        }
      ],
      "stateMutability": "view",
      "type": "function"
    },
    {
      "inputs": [],
      "name": "getBigBoss",
      "outputs": [
        {
          "components": [
            {
              "internalType": "string",
              "name": "name",
              "type": "string"
            },
            {
              "internalType": "string",
              "name": "imageURI",
              "type": "string"
            },
            {
              "internalType": "uint256",
              "name": "hp",
              "type": "uint256"
            },
            {
              "internalType": "uint256",
              "name": "maxHp",
              "type": "uint256"
            },
            {
              "internalType": "uint256",
              "name": "attackDamage",
              "type": "uint256"
            }
          ],
          "internalType": "struct MyEpicGame.BigBoss",
          "name": "",
          "type": "tuple"
        }
      ],
      "stateMutability": "view",
      "type": "function"
    },
    {
      "inputs": [
        {
          "internalType": "address",
          "name": "owner",
          "type": "address"
        },
        {
          "internalType": "address",
          "name": "operator",
          "type": "address"
        }
      ],
      "name": "isApprovedForAll",
      "outputs": [
        {
          "internalType": "bool",
          "name": "",
          "type": "bool"
        }
      ],
      "stateMutability": "view",
      "type": "function"
    },
    {
      "inputs": [
        {
          "internalType": "uint256",
          "name": "_characterIndex",
          "type": "uint256"
        }
      ],
      "name": "mintCharacterNFT",
      "outputs": [],
      "stateMutability": "nonpayable",
      "type": "function"
    },
    {
      "inputs": [],
      "name": "name",
      "outputs": [
        {
          "internalType": "string",
          "name": "",
          "type": "string"
        }
      ],
      "stateMutability": "view",
      "type": "function"
    },
    {
      "inputs": [
        {
          "internalType": "uint256",
          "name": "",
          "type": "uint256"
        }
      ],
      "name": "nftHolderAttributes",
      "outputs": [
        {
          "internalType": "uint256",
          "name": "characterIndex",
          "type": "uint256"
        },
        {
          "internalType": "string",
          "name": "name",
          "type": "string"
        },
        {
          "internalType": "string",
          "name": "imageURI",
          "type": "string"
        },
        {
          "internalType": "uint256",
          "name": "hp",
          "type": "uint256"
        },
        {
          "internalType": "uint256",
          "name": "maxHp",
          "type": "uint256"
        },
        {
          "internalType": "uint256",
          "name": "attackDamage",
          "type": "uint256"
        }
      ],
      "stateMutability": "view",
      "type": "function"
    },
    {
      "inputs": [
        {
          "internalType": "address",
          "name": "",
          "type": "address"
        }
      ],
      "name": "nftHolders",
      "outputs": [
        {
          "internalType": "uint256",
          "name": "",
          "type": "uint256"
        }
      ],
      "stateMutability": "view",
      "type": "function"
    },
    {
      "inputs": [
        {
          "internalType": "uint256",
          "name": "tokenId",
          "type": "uint256"
        }
      ],
      "name": "ownerOf",
      "outputs": [
        {
          "internalType": "address",
          "name": "",
          "type": "address"
        }
      ],
      "stateMutability": "view",
      "type": "function"
    },
    {
      "inputs": [
        {
          "internalType": "address",
          "name": "from",
          "type": "address"
        },
        {
          "internalType": "address",
          "name": "to",
          "type": "address"
        },
        {
          "internalType": "uint256",
          "name": "tokenId",
          "type": "uint256"
        }
      ],
      "name": "safeTransferFrom",
      "outputs": [],
      "stateMutability": "nonpayable",
      "type": "function"
    },
    {
      "inputs": [
        {
          "internalType": "address",
          "name": "from",
          "type": "address"
        },
        {
          "internalType": "address",
          "name": "to",
          "type": "address"
        },
        {
          "internalType": "uint256",
          "name": "tokenId",
          "type": "uint256"
        },
        {
          "internalType": "bytes",
          "name": "_data",
          "type": "bytes"
        }
      ],
      "name": "safeTransferFrom",
      "outputs": [],
      "stateMutability": "nonpayable",
      "type": "function"
    },
    {
      "inputs": [
        {
          "internalType": "address",
          "name": "operator",
          "type": "address"
        },
        {
          "internalType": "bool",
          "name": "approved",
          "type": "bool"
        }
      ],
      "name": "setApprovalForAll",
      "outputs": [],
      "stateMutability": "nonpayable",
      "type": "function"
    },
    {
      "inputs": [
        {
          "internalType": "bytes4",
          "name": "interfaceId",
          "type": "bytes4"
        }
      ],
      "name": "supportsInterface",
      "outputs": [
        {
          "internalType": "bool",
          "name": "",
          "type": "bool"
        }
      ],
      "stateMutability": "view",
      "type": "function"
    },
    {
      "inputs": [],
      "name": "symbol",
      "outputs": [
        {
          "internalType": "string",
          "name": "",
          "type": "string"
        }
      ],
      "stateMutability": "view",
      "type": "function"
    },
    {
      "inputs": [
        {
          "internalType": "uint256",
          "name": "_tokenId",
          "type": "uint256"
        }
      ],
      "name": "tokenURI",
      "outputs": [
        {
          "internalType": "string",
          "name": "",
          "type": "string"
        }
      ],
      "stateMutability": "view",
      "type": "function"
    },
    {
      "inputs": [
        {
          "internalType": "address",
          "name": "from",
          "type": "address"
        },
        {
          "internalType": "address",
          "name": "to",
          "type": "address"
        },
        {
          "internalType": "uint256",
          "name": "tokenId",
          "type": "uint256"
        }
      ],
      "name": "transferFrom",
      "outputs": [],
      "stateMutability": "nonpayable",
      "type": "function"
    }
  ],
  "bytecode": "0x60806040523480156200001157600080fd5b506040516200572138038062005721833981810160405281019062000037919062000b6f565b6040518060400160405280600681526020017f4865726f657300000000000000000000000000000000000000000000000000008152506040518060400160405280600481526020017f4845524f000000000000000000000000000000000000000000000000000000008152508160009080519060200190620000bb92919062000715565b508060019080519060200190620000d492919062000715565b5050506040518060a0016040528085815260200184815260200183815260200183815260200182815250600a60008201518160000190805190602001906200011e92919062000715565b5060208201518160010190805190602001906200013d92919062000715565b50604082015181600201556060820151816003015560808201518160040155905050620002c06040518060600160405280602a8152602001620056f7602a9139600a60000180546200018f9062000d21565b80601f0160208091040260200160405190810160405280929190818152602001828054620001bd9062000d21565b80156200020e5780601f10620001e2576101008083540402835291602001916200020e565b820191906000526020600020905b815481529060010190602001808311620001f057829003601f168201915b5050505050600a60020154600a60010180546200022b9062000d21565b80601f0160208091040260200160405190810160405280929190818152602001828054620002599062000d21565b8015620002aa5780601f106200027e57610100808354040283529160200191620002aa565b820191906000526020600020905b8154815290600101906020018083116200028c57829003601f168201915b50505050506200062a60201b62001b191760201c565b60005b8851811015620006045760076040518060c001604052808381526020018b8481518110620002f657620002f562000d57565b5b602002602001015181526020018a848151811062000319576200031862000d57565b5b602002602001015181526020018984815181106200033c576200033b62000d57565b5b602002602001015181526020018984815181106200035f576200035e62000d57565b5b6020026020010151815260200188848151811062000382576200038162000d57565b5b60200260200101518152509080600181540180825580915050600190039060005260206000209060060201600090919091909150600082015181600001556020820151816001019080519060200190620003de92919062000715565b506040820151816002019080519060200190620003fd92919062000715565b50606082015181600301556080820151816004015560a08201518160050155505060006007828154811062000437576200043662000d57565b5b90600052602060002090600602016040518060c0016040529081600082015481526020016001820180546200046c9062000d21565b80601f01602080910402602001604051908101604052809291908181526020018280546200049a9062000d21565b8015620004eb5780601f10620004bf57610100808354040283529160200191620004eb565b820191906000526020600020905b815481529060010190602001808311620004cd57829003601f168201915b50505050508152602001600282018054620005069062000d21565b80601f0160208091040260200160405190810160405280929190818152602001828054620005349062000d21565b8015620005855780601f10620005595761010080835404028352916020019162000585565b820191906000526020600020905b8154815290600101906020018083116200056757829003601f168201915b5050505050815260200160038201548152602001600482015481526020016005820154815250509050620005ec604051806060016040528060258152602001620056d2602591398260200151836060015184604001516200062a60201b62001b191760201c565b50600181620005fc919062000db5565b9050620002c3565b506200061c6006620006d660201b62001bbb1760201c565b505050505050505062000ee2565b620006d08484848460405160240162000647949392919062000e80565b6040516020818303038152906040527f8d142cdd000000000000000000000000000000000000000000000000000000007bffffffffffffffffffffffffffffffffffffffffffffffffffffffff19166020820180517bffffffffffffffffffffffffffffffffffffffffffffffffffffffff8381831617835250505050620006ec60201b60201c565b50505050565b6001816000016000828254019250508190555050565b60008151905060006a636f6e736f6c652e6c6f679050602083016000808483855afa5050505050565b828054620007239062000d21565b90600052602060002090601f01602090048101928262000747576000855562000793565b82601f106200076257805160ff191683800117855562000793565b8280016001018555821562000793579182015b828111156200079257825182559160200191906001019062000775565b5b509050620007a29190620007a6565b5090565b5b80821115620007c1576000816000905550600101620007a7565b5090565b6000604051905090565b600080fd5b600080fd5b600080fd5b6000601f19601f8301169050919050565b7f4e487b7100000000000000000000000000000000000000000000000000000000600052604160045260246000fd5b6200082982620007de565b810181811067ffffffffffffffff821117156200084b576200084a620007ef565b5b80604052505050565b600062000860620007c5565b90506200086e82826200081e565b919050565b600067ffffffffffffffff821115620008915762000890620007ef565b5b602082029050602081019050919050565b600080fd5b600080fd5b600067ffffffffffffffff821115620008ca57620008c9620007ef565b5b620008d582620007de565b9050602081019050919050565b60005b8381101562000902578082015181840152602081019050620008e5565b8381111562000912576000848401525b50505050565b60006200092f6200092984620008ac565b62000854565b9050828152602081018484840111156200094e576200094d620008a7565b5b6200095b848285620008e2565b509392505050565b600082601f8301126200097b576200097a620007d9565b5b81516200098d84826020860162000918565b91505092915050565b6000620009ad620009a78462000873565b62000854565b90508083825260208201905060208402830185811115620009d357620009d2620008a2565b5b835b8181101562000a2157805167ffffffffffffffff811115620009fc57620009fb620007d9565b5b80860162000a0b898262000963565b85526020850194505050602081019050620009d5565b5050509392505050565b600082601f83011262000a435762000a42620007d9565b5b815162000a5584826020860162000996565b91505092915050565b600067ffffffffffffffff82111562000a7c5762000a7b620007ef565b5b602082029050602081019050919050565b6000819050919050565b62000aa28162000a8d565b811462000aae57600080fd5b50565b60008151905062000ac28162000a97565b92915050565b600062000adf62000ad98462000a5e565b62000854565b9050808382526020820190506020840283018581111562000b055762000b04620008a2565b5b835b8181101562000b32578062000b1d888262000ab1565b84526020840193505060208101905062000b07565b5050509392505050565b600082601f83011262000b545762000b53620007d9565b5b815162000b6684826020860162000ac8565b91505092915050565b600080600080600080600080610100898b03121562000b935762000b92620007cf565b5b600089015167ffffffffffffffff81111562000bb45762000bb3620007d4565b5b62000bc28b828c0162000a2b565b985050602089015167ffffffffffffffff81111562000be65762000be5620007d4565b5b62000bf48b828c0162000a2b565b975050604089015167ffffffffffffffff81111562000c185762000c17620007d4565b5b62000c268b828c0162000b3c565b965050606089015167ffffffffffffffff81111562000c4a5762000c49620007d4565b5b62000c588b828c0162000b3c565b955050608089015167ffffffffffffffff81111562000c7c5762000c7b620007d4565b5b62000c8a8b828c0162000963565b94505060a089015167ffffffffffffffff81111562000cae5762000cad620007d4565b5b62000cbc8b828c0162000963565b93505060c062000ccf8b828c0162000ab1565b92505060e062000ce28b828c0162000ab1565b9150509295985092959890939650565b7f4e487b7100000000000000000000000000000000000000000000000000000000600052602260045260246000fd5b6000600282049050600182168062000d3a57607f821691505b6020821081141562000d515762000d5062000cf2565b5b50919050565b7f4e487b7100000000000000000000000000000000000000000000000000000000600052603260045260246000fd5b7f4e487b7100000000000000000000000000000000000000000000000000000000600052601160045260246000fd5b600062000dc28262000a8d565b915062000dcf8362000a8d565b9250827fffffffffffffffffffffffffffffffffffffffffffffffffffffffffffffffff0382111562000e075762000e0662000d86565b5b828201905092915050565b600081519050919050565b600082825260208201905092915050565b600062000e3b8262000e12565b62000e47818562000e1d565b935062000e59818560208601620008e2565b62000e6481620007de565b840191505092915050565b62000e7a8162000a8d565b82525050565b6000608082019050818103600083015262000e9c818762000e2e565b9050818103602083015262000eb2818662000e2e565b905062000ec3604083018562000e6f565b818103606083015262000ed7818462000e2e565b905095945050505050565b6147e08062000ef26000396000f3fe608060405234801561001057600080fd5b50600436106101375760003560e01c806395d89b41116100b8578063b953084e1161007c578063b953084e14610369578063c87b56dd14610387578063c8cf27f4146103b7578063d4f24c5b146103d5578063e985e9c5146103df578063f8b81ef71461040f57610137565b806395d89b41146102bc57806398da4c95146102da578063a22cb4651461030f578063a9c326791461032b578063b88d4fde1461034d57610137565b806323b872dd116100ff57806323b872dd146101f457806342842e0e146102105780636352211e1461022c57806370a082311461025c5780637df124a11461028c57610137565b806301ffc9a71461013c5780630665f9611461016c57806306fdde031461018a578063081812fc146101a8578063095ea7b3146101d8575b600080fd5b61015660048036038101906101519190612ccb565b61042b565b6040516101639190612d13565b60405180910390f35b61017461050d565b6040516101819190612e5d565b60405180910390f35b610192610669565b60405161019f9190612ec9565b60405180910390f35b6101c260048036038101906101bd9190612f17565b6106fb565b6040516101cf9190612f85565b60405180910390f35b6101f260048036038101906101ed9190612fcc565b610780565b005b61020e6004803603810190610209919061300c565b610898565b005b61022a6004803603810190610225919061300c565b6108f8565b005b61024660048036038101906102419190612f17565b610918565b6040516102539190612f85565b60405180910390f35b6102766004803603810190610271919061305f565b6109ca565b604051610283919061309b565b60405180910390f35b6102a660048036038101906102a1919061305f565b610a82565b6040516102b3919061309b565b60405180910390f35b6102c4610a9a565b6040516102d19190612ec9565b60405180910390f35b6102f460048036038101906102ef9190612f17565b610b2c565b604051610306969594939291906130b6565b60405180910390f35b61032960048036038101906103249190613151565b610c78565b005b610333610c8e565b604051610344959493929190613191565b60405180910390f35b61036760048036038101906103629190613327565b610dc2565b005b610371610e24565b60405161037e91906134fc565b60405180910390f35b6103a1600480360381019061039c9190612f17565b610fcf565b6040516103ae9190612ec9565b60405180910390f35b6103bf6111ea565b6040516103cc91906135ae565b60405180910390f35b6103dd6113c2565b005b6103f960048036038101906103f491906135d0565b61174f565b6040516104069190612d13565b60405180910390f35b61042960048036038101906104249190612f17565b6117e3565b005b60007f80ac58cd000000000000000000000000000000000000000000000000000000007bffffffffffffffffffffffffffffffffffffffffffffffffffffffff1916827bffffffffffffffffffffffffffffffffffffffffffffffffffffffff191614806104f657507f5b5e139f000000000000000000000000000000000000000000000000000000007bffffffffffffffffffffffffffffffffffffffffffffffffffffffff1916827bffffffffffffffffffffffffffffffffffffffffffffffffffffffff1916145b80610506575061050582611bd1565b5b9050919050565b610515612b57565b600a6040518060a00160405290816000820180546105329061363f565b80601f016020809104026020016040519081016040528092919081815260200182805461055e9061363f565b80156105ab5780601f10610580576101008083540402835291602001916105ab565b820191906000526020600020905b81548152906001019060200180831161058e57829003601f168201915b505050505081526020016001820180546105c49061363f565b80601f01602080910402602001604051908101604052809291908181526020018280546105f09061363f565b801561063d5780601f106106125761010080835404028352916020019161063d565b820191906000526020600020905b81548152906001019060200180831161062057829003601f168201915b505050505081526020016002820154815260200160038201548152602001600482015481525050905090565b6060600080546106789061363f565b80601f01602080910402602001604051908101604052809291908181526020018280546106a49061363f565b80156106f15780601f106106c6576101008083540402835291602001916106f1565b820191906000526020600020905b8154815290600101906020018083116106d457829003601f168201915b5050505050905090565b600061070682611c3b565b610745576040517f08c379a000000000000000000000000000000000000000000000000000000000815260040161073c906136e3565b60405180910390fd5b6004600083815260200190815260200160002060009054906101000a900473ffffffffffffffffffffffffffffffffffffffff169050919050565b600061078b82610918565b90508073ffffffffffffffffffffffffffffffffffffffff168373ffffffffffffffffffffffffffffffffffffffff1614156107fc576040517f08c379a00000000000000000000000000000000000000000000000000000000081526004016107f390613775565b60405180910390fd5b8073ffffffffffffffffffffffffffffffffffffffff1661081b611ca7565b73ffffffffffffffffffffffffffffffffffffffff16148061084a575061084981610844611ca7565b61174f565b5b610889576040517f08c379a000000000000000000000000000000000000000000000000000000000815260040161088090613807565b60405180910390fd5b6108938383611caf565b505050565b6108a96108a3611ca7565b82611d68565b6108e8576040517f08c379a00000000000000000000000000000000000000000000000000000000081526004016108df90613899565b60405180910390fd5b6108f3838383611e46565b505050565b61091383838360405180602001604052806000815250610dc2565b505050565b6000806002600084815260200190815260200160002060009054906101000a900473ffffffffffffffffffffffffffffffffffffffff169050600073ffffffffffffffffffffffffffffffffffffffff168173ffffffffffffffffffffffffffffffffffffffff1614156109c1576040517f08c379a00000000000000000000000000000000000000000000000000000000081526004016109b89061392b565b60405180910390fd5b80915050919050565b60008073ffffffffffffffffffffffffffffffffffffffff168273ffffffffffffffffffffffffffffffffffffffff161415610a3b576040517f08c379a0000000000000000000000000000000000000000000000000000000008152600401610a32906139bd565b60405180910390fd5b600360008373ffffffffffffffffffffffffffffffffffffffff1673ffffffffffffffffffffffffffffffffffffffff168152602001908152602001600020549050919050565b60096020528060005260406000206000915090505481565b606060018054610aa99061363f565b80601f0160208091040260200160405190810160405280929190818152602001828054610ad59061363f565b8015610b225780601f10610af757610100808354040283529160200191610b22565b820191906000526020600020905b815481529060010190602001808311610b0557829003601f168201915b5050505050905090565b6008602052806000526040600020600091509050806000015490806001018054610b559061363f565b80601f0160208091040260200160405190810160405280929190818152602001828054610b819061363f565b8015610bce5780601f10610ba357610100808354040283529160200191610bce565b820191906000526020600020905b815481529060010190602001808311610bb157829003601f168201915b505050505090806002018054610be39061363f565b80601f0160208091040260200160405190810160405280929190818152602001828054610c0f9061363f565b8015610c5c5780601f10610c3157610100808354040283529160200191610c5c565b820191906000526020600020905b815481529060010190602001808311610c3f57829003601f168201915b5050505050908060030154908060040154908060050154905086565b610c8a610c83611ca7565b83836120ad565b5050565b600a806000018054610c9f9061363f565b80601f0160208091040260200160405190810160405280929190818152602001828054610ccb9061363f565b8015610d185780601f10610ced57610100808354040283529160200191610d18565b820191906000526020600020905b815481529060010190602001808311610cfb57829003601f168201915b505050505090806001018054610d2d9061363f565b80601f0160208091040260200160405190810160405280929190818152602001828054610d599061363f565b8015610da65780601f10610d7b57610100808354040283529160200191610da6565b820191906000526020600020905b815481529060010190602001808311610d8957829003601f168201915b5050505050908060020154908060030154908060040154905085565b610dd3610dcd611ca7565b83611d68565b610e12576040517f08c379a0000000000000000000000000000000000000000000000000000000008152600401610e0990613899565b60405180910390fd5b610e1e8484848461221a565b50505050565b60606007805480602002602001604051908101604052809291908181526020016000905b82821015610fc657838290600052602060002090600602016040518060c001604052908160008201548152602001600182018054610e859061363f565b80601f0160208091040260200160405190810160405280929190818152602001828054610eb19061363f565b8015610efe5780601f10610ed357610100808354040283529160200191610efe565b820191906000526020600020905b815481529060010190602001808311610ee157829003601f168201915b50505050508152602001600282018054610f179061363f565b80601f0160208091040260200160405190810160405280929190818152602001828054610f439061363f565b8015610f905780601f10610f6557610100808354040283529160200191610f90565b820191906000526020600020905b815481529060010190602001808311610f7357829003601f168201915b50505050508152602001600382015481526020016004820154815260200160058201548152505081526020019060010190610e48565b50505050905090565b60606000600860008481526020019081526020016000206040518060c00160405290816000820154815260200160018201805461100b9061363f565b80601f01602080910402602001604051908101604052809291908181526020018280546110379061363f565b80156110845780601f1061105957610100808354040283529160200191611084565b820191906000526020600020905b81548152906001019060200180831161106757829003601f168201915b5050505050815260200160028201805461109d9061363f565b80601f01602080910402602001604051908101604052809291908181526020018280546110c99061363f565b80156111165780601f106110eb57610100808354040283529160200191611116565b820191906000526020600020905b8154815290600101906020018083116110f957829003601f168201915b5050505050815260200160038201548152602001600482015481526020016005820154815250509050600061114e8260600151612276565b9050600061115f8360800151612276565b905060006111708460a00151612276565b905060006111b6856020015161118589612276565b87604001518787876040516020016111a296959493929190613c9f565b6040516020818303038152906040526123d7565b90506000816040516020016111cb9190613d90565b6040516020818303038152906040529050809650505050505050919050565b6111f2612b86565b6000600960003373ffffffffffffffffffffffffffffffffffffffff1673ffffffffffffffffffffffffffffffffffffffff16815260200190815260200160002054905060008111156113b157600860008281526020019081526020016000206040518060c0016040529081600082015481526020016001820180546112779061363f565b80601f01602080910402602001604051908101604052809291908181526020018280546112a39061363f565b80156112f05780601f106112c5576101008083540402835291602001916112f0565b820191906000526020600020905b8154815290600101906020018083116112d357829003601f168201915b505050505081526020016002820180546113099061363f565b80601f01602080910402602001604051908101604052809291908181526020018280546113359061363f565b80156113825780601f1061135757610100808354040283529160200191611382565b820191906000526020600020905b81548152906001019060200180831161136557829003601f168201915b5050505050815260200160038201548152602001600482015481526020016005820154815250509150506113bf565b6113b9612b86565b80925050505b90565b6000600960003373ffffffffffffffffffffffffffffffffffffffff1673ffffffffffffffffffffffffffffffffffffffff16815260200190815260200160002054905060006008600083815260200190815260200160002090506114d56040518060600160405280603c815260200161476f603c91398260010180546114489061363f565b80601f01602080910402602001604051908101604052809291908181526020018280546114749061363f565b80156114c15780601f10611496576101008083540402835291602001916114c1565b820191906000526020600020905b8154815290600101906020018083116114a457829003601f168201915b50505050508360030154846005015461253b565b6115ad6040518060400160405280601b81526020017f426f73732025732068617320257320485020616e642025732041440000000000815250600a600001805461151e9061363f565b80601f016020809104026020016040519081016040528092919081815260200182805461154a9061363f565b80156115975780601f1061156c57610100808354040283529160200191611597565b820191906000526020600020905b81548152906001019060200180831161157a57829003601f168201915b5050505050600a60020154600a6004015461253b565b60008160030154116115f4576040517f08c379a00000000000000000000000000000000000000000000000000000000081526004016115eb90613e24565b60405180910390fd5b6000600a600201541161163c576040517f08c379a000000000000000000000000000000000000000000000000000000000815260040161163390613eb6565b60405180910390fd5b8060050154600a60020154101561165d576000600a6002018190555061167c565b8060050154600a600201546116729190613f05565b600a600201819055505b600a600401548160030154101561169c57600081600301819055506116ba565b600a6004015481600301546116b19190613f05565b81600301819055505b6116e16040518060600160405280602581526020016146b460259139600a600201546125dd565b6117076040518060600160405280602881526020016147196028913982600301546125dd565b7f32bd565ee3f2cb5ddd742bbecd6048d3e9abe90b3827a40c2b72d232e71e3c9d33600a60020154836003015460405161174393929190613f39565b60405180910390a15050565b6000600560008473ffffffffffffffffffffffffffffffffffffffff1673ffffffffffffffffffffffffffffffffffffffff16815260200190815260200160002060008373ffffffffffffffffffffffffffffffffffffffff1673ffffffffffffffffffffffffffffffffffffffff16815260200190815260200160002060009054906101000a900460ff16905092915050565b60006117ef6006612679565b90506117fb3382612687565b6040518060c00160405280838152602001600784815481106118205761181f613f70565b5b9060005260206000209060060201600101805461183c9061363f565b80601f01602080910402602001604051908101604052809291908181526020018280546118689061363f565b80156118b55780601f1061188a576101008083540402835291602001916118b5565b820191906000526020600020905b81548152906001019060200180831161189857829003601f168201915b50505050508152602001600784815481106118d3576118d2613f70565b5b906000526020600020906006020160020180546118ef9061363f565b80601f016020809104026020016040519081016040528092919081815260200182805461191b9061363f565b80156119685780601f1061193d57610100808354040283529160200191611968565b820191906000526020600020905b81548152906001019060200180831161194b57829003601f168201915b505050505081526020016007848154811061198657611985613f70565b5b9060005260206000209060060201600301548152602001600784815481106119b1576119b0613f70565b5b9060005260206000209060060201600401548152602001600784815481106119dc576119db613f70565b5b90600052602060002090600602016005015481525060086000838152602001908152602001600020600082015181600001556020820151816001019080519060200190611a2a929190612bbc565b506040820151816002019080519060200190611a47929190612bbc565b50606082015181600301556080820151816004015560a08201518160050155905050611a8c6040518060600160405280602e8152602001614741602e913982846126a5565b80600960003373ffffffffffffffffffffffffffffffffffffffff1673ffffffffffffffffffffffffffffffffffffffff16815260200190815260200160002081905550611ada6006611bbb565b7f4bc303fd457a97b4691b9af582ce71868a3d258638c8d4f8c60988a0f0bfb8cd338284604051611b0d93929190613f39565b60405180910390a15050565b611bb584848484604051602401611b339493929190613f9f565b6040516020818303038152906040527f8d142cdd000000000000000000000000000000000000000000000000000000007bffffffffffffffffffffffffffffffffffffffffffffffffffffffff19166020820180517bffffffffffffffffffffffffffffffffffffffffffffffffffffffff8381831617835250505050612744565b50505050565b6001816000016000828254019250508190555050565b60007f01ffc9a7000000000000000000000000000000000000000000000000000000007bffffffffffffffffffffffffffffffffffffffffffffffffffffffff1916827bffffffffffffffffffffffffffffffffffffffffffffffffffffffff1916149050919050565b60008073ffffffffffffffffffffffffffffffffffffffff166002600084815260200190815260200160002060009054906101000a900473ffffffffffffffffffffffffffffffffffffffff1673ffffffffffffffffffffffffffffffffffffffff1614159050919050565b600033905090565b816004600083815260200190815260200160002060006101000a81548173ffffffffffffffffffffffffffffffffffffffff021916908373ffffffffffffffffffffffffffffffffffffffff160217905550808273ffffffffffffffffffffffffffffffffffffffff16611d2283610918565b73ffffffffffffffffffffffffffffffffffffffff167f8c5be1e5ebec7d5bd14f71427d1e84f3dd0314c0f7b2291e5b200ac8c7c3b92560405160405180910390a45050565b6000611d7382611c3b565b611db2576040517f08c379a0000000000000000000000000000000000000000000000000000000008152600401611da99061406b565b60405180910390fd5b6000611dbd83610918565b90508073ffffffffffffffffffffffffffffffffffffffff168473ffffffffffffffffffffffffffffffffffffffff161480611dff5750611dfe818561174f565b5b80611e3d57508373ffffffffffffffffffffffffffffffffffffffff16611e25846106fb565b73ffffffffffffffffffffffffffffffffffffffff16145b91505092915050565b8273ffffffffffffffffffffffffffffffffffffffff16611e6682610918565b73ffffffffffffffffffffffffffffffffffffffff1614611ebc576040517f08c379a0000000000000000000000000000000000000000000000000000000008152600401611eb3906140fd565b60405180910390fd5b600073ffffffffffffffffffffffffffffffffffffffff168273ffffffffffffffffffffffffffffffffffffffff161415611f2c576040517f08c379a0000000000000000000000000000000000000000000000000000000008152600401611f239061418f565b60405180910390fd5b611f3783838361276d565b611f42600082611caf565b6001600360008573ffffffffffffffffffffffffffffffffffffffff1673ffffffffffffffffffffffffffffffffffffffff1681526020019081526020016000206000828254611f929190613f05565b925050819055506001600360008473ffffffffffffffffffffffffffffffffffffffff1673ffffffffffffffffffffffffffffffffffffffff1681526020019081526020016000206000828254611fe991906141af565b92505081905550816002600083815260200190815260200160002060006101000a81548173ffffffffffffffffffffffffffffffffffffffff021916908373ffffffffffffffffffffffffffffffffffffffff160217905550808273ffffffffffffffffffffffffffffffffffffffff168473ffffffffffffffffffffffffffffffffffffffff167fddf252ad1be2c89b69c2b068fc378daa952ba7f163c4a11628f55a4df523b3ef60405160405180910390a46120a8838383612772565b505050565b8173ffffffffffffffffffffffffffffffffffffffff168373ffffffffffffffffffffffffffffffffffffffff16141561211c576040517f08c379a000000000000000000000000000000000000000000000000000000000815260040161211390614251565b60405180910390fd5b80600560008573ffffffffffffffffffffffffffffffffffffffff1673ffffffffffffffffffffffffffffffffffffffff16815260200190815260200160002060008473ffffffffffffffffffffffffffffffffffffffff1673ffffffffffffffffffffffffffffffffffffffff16815260200190815260200160002060006101000a81548160ff0219169083151502179055508173ffffffffffffffffffffffffffffffffffffffff168373ffffffffffffffffffffffffffffffffffffffff167f17307eab39ab6107e8899845ad3d59bd9653f200f220920489ca2b5937696c318360405161220d9190612d13565b60405180910390a3505050565b612225848484611e46565b61223184848484612777565b612270576040517f08c379a0000000000000000000000000000000000000000000000000000000008152600401612267906142e3565b60405180910390fd5b50505050565b606060008214156122be576040518060400160405280600181526020017f300000000000000000000000000000000000000000000000000000000000000081525090506123d2565b600082905060005b600082146122f05780806122d990614303565b915050600a826122e9919061437b565b91506122c6565b60008167ffffffffffffffff81111561230c5761230b6131fc565b5b6040519080825280601f01601f19166020018201604052801561233e5781602001600182028036833780820191505090505b5090505b600085146123cb576001826123579190613f05565b9150600a8561236691906143ac565b603061237291906141af565b60f81b81838151811061238857612387613f70565b5b60200101907effffffffffffffffffffffffffffffffffffffffffffffffffffffffffffff1916908160001a905350600a856123c4919061437b565b9450612342565b8093505050505b919050565b60606000825114156123fa57604051806020016040528060008152509050612536565b60006040518060600160405280604081526020016146d9604091399050600060036002855161242991906141af565b612433919061437b565b600461243f91906143dd565b67ffffffffffffffff811115612458576124576131fc565b5b6040519080825280601f01601f19166020018201604052801561248a5781602001600182028036833780820191505090505b509050600182016020820185865187015b808210156124f6576003820191508151603f8160121c168501518453600184019350603f81600c1c168501518453600184019350603f8160061c168501518453600184019350603f811685015184536001840193505061249b565b505060038651066001811461251257600281146125255761252d565b603d6001830353603d600283035361252d565b603d60018303535b50505080925050505b919050565b6125d7848484846040516024016125559493929190614437565b6040516020818303038152906040527fd5cf17d0000000000000000000000000000000000000000000000000000000007bffffffffffffffffffffffffffffffffffffffffffffffffffffffff19166020820180517bffffffffffffffffffffffffffffffffffffffffffffffffffffffff8381831617835250505050612744565b50505050565b61267582826040516024016125f392919061448a565b6040516020818303038152906040527f9710a9d0000000000000000000000000000000000000000000000000000000007bffffffffffffffffffffffffffffffffffffffffffffffffffffffff19166020820180517bffffffffffffffffffffffffffffffffffffffffffffffffffffffff8381831617835250505050612744565b5050565b600081600001549050919050565b6126a18282604051806020016040528060008152506128ff565b5050565b61273f8383836040516024016126bd939291906144ba565b6040516020818303038152906040527f969cdd03000000000000000000000000000000000000000000000000000000007bffffffffffffffffffffffffffffffffffffffffffffffffffffffff19166020820180517bffffffffffffffffffffffffffffffffffffffffffffffffffffffff8381831617835250505050612744565b505050565b60008151905060006a636f6e736f6c652e6c6f679050602083016000808483855afa5050505050565b505050565b505050565b60006127988473ffffffffffffffffffffffffffffffffffffffff1661295a565b156128f2578373ffffffffffffffffffffffffffffffffffffffff1663150b7a026127c1611ca7565b8786866040518563ffffffff1660e01b81526004016127e3949392919061454d565b6020604051808303816000875af192505050801561281f57506040513d601f19601f8201168201806040525081019061281c91906145ae565b60015b6128a2573d806000811461284f576040519150601f19603f3d011682016040523d82523d6000602084013e612854565b606091505b5060008151141561289a576040517f08c379a0000000000000000000000000000000000000000000000000000000008152600401612891906142e3565b60405180910390fd5b805181602001fd5b63150b7a0260e01b7bffffffffffffffffffffffffffffffffffffffffffffffffffffffff1916817bffffffffffffffffffffffffffffffffffffffffffffffffffffffff1916149150506128f7565b600190505b949350505050565b612909838361297d565b6129166000848484612777565b612955576040517f08c379a000000000000000000000000000000000000000000000000000000000815260040161294c906142e3565b60405180910390fd5b505050565b6000808273ffffffffffffffffffffffffffffffffffffffff163b119050919050565b600073ffffffffffffffffffffffffffffffffffffffff168273ffffffffffffffffffffffffffffffffffffffff1614156129ed576040517f08c379a00000000000000000000000000000000000000000000000000000000081526004016129e490614627565b60405180910390fd5b6129f681611c3b565b15612a36576040517f08c379a0000000000000000000000000000000000000000000000000000000008152600401612a2d90614693565b60405180910390fd5b612a426000838361276d565b6001600360008473ffffffffffffffffffffffffffffffffffffffff1673ffffffffffffffffffffffffffffffffffffffff1681526020019081526020016000206000828254612a9291906141af565b92505081905550816002600083815260200190815260200160002060006101000a81548173ffffffffffffffffffffffffffffffffffffffff021916908373ffffffffffffffffffffffffffffffffffffffff160217905550808273ffffffffffffffffffffffffffffffffffffffff16600073ffffffffffffffffffffffffffffffffffffffff167fddf252ad1be2c89b69c2b068fc378daa952ba7f163c4a11628f55a4df523b3ef60405160405180910390a4612b5360008383612772565b5050565b6040518060a0016040528060608152602001606081526020016000815260200160008152602001600081525090565b6040518060c001604052806000815260200160608152602001606081526020016000815260200160008152602001600081525090565b828054612bc89061363f565b90600052602060002090601f016020900481019282612bea5760008555612c31565b82601f10612c0357805160ff1916838001178555612c31565b82800160010185558215612c31579182015b82811115612c30578251825591602001919060010190612c15565b5b509050612c3e9190612c42565b5090565b5b80821115612c5b576000816000905550600101612c43565b5090565b6000604051905090565b600080fd5b600080fd5b60007fffffffff0000000000000000000000000000000000000000000000000000000082169050919050565b612ca881612c73565b8114612cb357600080fd5b50565b600081359050612cc581612c9f565b92915050565b600060208284031215612ce157612ce0612c69565b5b6000612cef84828501612cb6565b91505092915050565b60008115159050919050565b612d0d81612cf8565b82525050565b6000602082019050612d286000830184612d04565b92915050565b600081519050919050565b600082825260208201905092915050565b60005b83811015612d68578082015181840152602081019050612d4d565b83811115612d77576000848401525b50505050565b6000601f19601f8301169050919050565b6000612d9982612d2e565b612da38185612d39565b9350612db3818560208601612d4a565b612dbc81612d7d565b840191505092915050565b6000819050919050565b612dda81612dc7565b82525050565b600060a0830160008301518482036000860152612dfd8282612d8e565b91505060208301518482036020860152612e178282612d8e565b9150506040830151612e2c6040860182612dd1565b506060830151612e3f6060860182612dd1565b506080830151612e526080860182612dd1565b508091505092915050565b60006020820190508181036000830152612e778184612de0565b905092915050565b600082825260208201905092915050565b6000612e9b82612d2e565b612ea58185612e7f565b9350612eb5818560208601612d4a565b612ebe81612d7d565b840191505092915050565b60006020820190508181036000830152612ee38184612e90565b905092915050565b612ef481612dc7565b8114612eff57600080fd5b50565b600081359050612f1181612eeb565b92915050565b600060208284031215612f2d57612f2c612c69565b5b6000612f3b84828501612f02565b91505092915050565b600073ffffffffffffffffffffffffffffffffffffffff82169050919050565b6000612f6f82612f44565b9050919050565b612f7f81612f64565b82525050565b6000602082019050612f9a6000830184612f76565b92915050565b612fa981612f64565b8114612fb457600080fd5b50565b600081359050612fc681612fa0565b92915050565b60008060408385031215612fe357612fe2612c69565b5b6000612ff185828601612fb7565b925050602061300285828601612f02565b9150509250929050565b60008060006060848603121561302557613024612c69565b5b600061303386828701612fb7565b935050602061304486828701612fb7565b925050604061305586828701612f02565b9150509250925092565b60006020828403121561307557613074612c69565b5b600061308384828501612fb7565b91505092915050565b61309581612dc7565b82525050565b60006020820190506130b0600083018461308c565b92915050565b600060c0820190506130cb600083018961308c565b81810360208301526130dd8188612e90565b905081810360408301526130f18187612e90565b9050613100606083018661308c565b61310d608083018561308c565b61311a60a083018461308c565b979650505050505050565b61312e81612cf8565b811461313957600080fd5b50565b60008135905061314b81613125565b92915050565b6000806040838503121561316857613167612c69565b5b600061317685828601612fb7565b92505060206131878582860161313c565b9150509250929050565b600060a08201905081810360008301526131ab8188612e90565b905081810360208301526131bf8187612e90565b90506131ce604083018661308c565b6131db606083018561308c565b6131e8608083018461308c565b9695505050505050565b600080fd5b600080fd5b7f4e487b7100000000000000000000000000000000000000000000000000000000600052604160045260246000fd5b61323482612d7d565b810181811067ffffffffffffffff82111715613253576132526131fc565b5b80604052505050565b6000613266612c5f565b9050613272828261322b565b919050565b600067ffffffffffffffff821115613292576132916131fc565b5b61329b82612d7d565b9050602081019050919050565b82818337600083830152505050565b60006132ca6132c584613277565b61325c565b9050828152602081018484840111156132e6576132e56131f7565b5b6132f18482856132a8565b509392505050565b600082601f83011261330e5761330d6131f2565b5b813561331e8482602086016132b7565b91505092915050565b6000806000806080858703121561334157613340612c69565b5b600061334f87828801612fb7565b945050602061336087828801612fb7565b935050604061337187828801612f02565b925050606085013567ffffffffffffffff81111561339257613391612c6e565b5b61339e878288016132f9565b91505092959194509250565b600081519050919050565b600082825260208201905092915050565b6000819050602082019050919050565b600060c0830160008301516133ee6000860182612dd1565b50602083015184820360208601526134068282612d8e565b915050604083015184820360408601526134208282612d8e565b91505060608301516134356060860182612dd1565b5060808301516134486080860182612dd1565b5060a083015161345b60a0860182612dd1565b508091505092915050565b600061347283836133d6565b905092915050565b6000602082019050919050565b6000613492826133aa565b61349c81856133b5565b9350836020820285016134ae856133c6565b8060005b858110156134ea57848403895281516134cb8582613466565b94506134d68361347a565b925060208a019950506001810190506134b2565b50829750879550505050505092915050565b600060208201905081810360008301526135168184613487565b905092915050565b600060c0830160008301516135366000860182612dd1565b506020830151848203602086015261354e8282612d8e565b915050604083015184820360408601526135688282612d8e565b915050606083015161357d6060860182612dd1565b5060808301516135906080860182612dd1565b5060a08301516135a360a0860182612dd1565b508091505092915050565b600060208201905081810360008301526135c8818461351e565b905092915050565b600080604083850312156135e7576135e6612c69565b5b60006135f585828601612fb7565b925050602061360685828601612fb7565b9150509250929050565b7f4e487b7100000000000000000000000000000000000000000000000000000000600052602260045260246000fd5b6000600282049050600182168061365757607f821691505b6020821081141561366b5761366a613610565b5b50919050565b7f4552433732313a20617070726f76656420717565727920666f72206e6f6e657860008201527f697374656e7420746f6b656e0000000000000000000000000000000000000000602082015250565b60006136cd602c83612e7f565b91506136d882613671565b604082019050919050565b600060208201905081810360008301526136fc816136c0565b9050919050565b7f4552433732313a20617070726f76616c20746f2063757272656e74206f776e6560008201527f7200000000000000000000000000000000000000000000000000000000000000602082015250565b600061375f602183612e7f565b915061376a82613703565b604082019050919050565b6000602082019050818103600083015261378e81613752565b9050919050565b7f4552433732313a20617070726f76652063616c6c6572206973206e6f74206f7760008201527f6e6572206e6f7220617070726f76656420666f7220616c6c0000000000000000602082015250565b60006137f1603883612e7f565b91506137fc82613795565b604082019050919050565b60006020820190508181036000830152613820816137e4565b9050919050565b7f4552433732313a207472616e736665722063616c6c6572206973206e6f74206f60008201527f776e6572206e6f7220617070726f766564000000000000000000000000000000602082015250565b6000613883603183612e7f565b915061388e82613827565b604082019050919050565b600060208201905081810360008301526138b281613876565b9050919050565b7f4552433732313a206f776e657220717565727920666f72206e6f6e657869737460008201527f656e7420746f6b656e0000000000000000000000000000000000000000000000602082015250565b6000613915602983612e7f565b9150613920826138b9565b604082019050919050565b6000602082019050818103600083015261394481613908565b9050919050565b7f4552433732313a2062616c616e636520717565727920666f7220746865207a6560008201527f726f206164647265737300000000000000000000000000000000000000000000602082015250565b60006139a7602a83612e7f565b91506139b28261394b565b604082019050919050565b600060208201905081810360008301526139d68161399a565b9050919050565b600081905092915050565b7f7b226e616d65223a202200000000000000000000000000000000000000000000600082015250565b6000613a1e600a836139dd565b9150613a29826139e8565b600a82019050919050565b6000613a3f82612d2e565b613a4981856139dd565b9350613a59818560208601612d4a565b80840191505092915050565b7f202d2d204e465420233a20000000000000000000000000000000000000000000600082015250565b6000613a9b600b836139dd565b9150613aa682613a65565b600b82019050919050565b7f222c20226465736372697074696f6e223a2022416e2065706963204e4654222c60008201527f2022696d616765223a2022697066733a2f2f0000000000000000000000000000602082015250565b6000613b0d6032836139dd565b9150613b1882613ab1565b603282019050919050565b7f222c202261747472696275746573223a205b207b202274726169745f7479706560008201527f223a20224865616c746820506f696e7473222c202276616c7565223a20000000602082015250565b6000613b7f603d836139dd565b9150613b8a82613b23565b603d82019050919050565b7f2c20226d61785f76616c7565223a000000000000000000000000000000000000600082015250565b6000613bcb600e836139dd565b9150613bd682613b95565b600e82019050919050565b7f7d2c207b202274726169745f74797065223a202241747461636b2044616d616760008201527f65222c202276616c7565223a2000000000000000000000000000000000000000602082015250565b6000613c3d602d836139dd565b9150613c4882613be1565b602d82019050919050565b7f7d205d7d00000000000000000000000000000000000000000000000000000000600082015250565b6000613c896004836139dd565b9150613c9482613c53565b600482019050919050565b6000613caa82613a11565b9150613cb68289613a34565b9150613cc182613a8e565b9150613ccd8288613a34565b9150613cd882613b00565b9150613ce48287613a34565b9150613cef82613b72565b9150613cfb8286613a34565b9150613d0682613bbe565b9150613d128285613a34565b9150613d1d82613c30565b9150613d298284613a34565b9150613d3482613c7c565b9150819050979650505050505050565b7f646174613a6170706c69636174696f6e2f6a736f6e3b6261736536342c000000600082015250565b6000613d7a601d836139dd565b9150613d8582613d44565b601d82019050919050565b6000613d9b82613d6d565b9150613da78284613a34565b915081905092915050565b7f4572726f723a20636861726163746572206d757374206861766520485020746f60008201527f2061747461636b20626f73732e00000000000000000000000000000000000000602082015250565b6000613e0e602d83612e7f565b9150613e1982613db2565b604082019050919050565b60006020820190508181036000830152613e3d81613e01565b9050919050565b7f4572726f723a20626f7373206d757374206861766520485020746f206174746160008201527f636b20626f73732e000000000000000000000000000000000000000000000000602082015250565b6000613ea0602883612e7f565b9150613eab82613e44565b604082019050919050565b60006020820190508181036000830152613ecf81613e93565b9050919050565b7f4e487b7100000000000000000000000000000000000000000000000000000000600052601160045260246000fd5b6000613f1082612dc7565b9150613f1b83612dc7565b925082821015613f2e57613f2d613ed6565b5b828203905092915050565b6000606082019050613f4e6000830186612f76565b613f5b602083018561308c565b613f68604083018461308c565b949350505050565b7f4e487b7100000000000000000000000000000000000000000000000000000000600052603260045260246000fd5b60006080820190508181036000830152613fb98187612e90565b90508181036020830152613fcd8186612e90565b9050613fdc604083018561308c565b8181036060830152613fee8184612e90565b905095945050505050565b7f4552433732313a206f70657261746f7220717565727920666f72206e6f6e657860008201527f697374656e7420746f6b656e0000000000000000000000000000000000000000602082015250565b6000614055602c83612e7f565b915061406082613ff9565b604082019050919050565b6000602082019050818103600083015261408481614048565b9050919050565b7f4552433732313a207472616e736665722066726f6d20696e636f72726563742060008201527f6f776e6572000000000000000000000000000000000000000000000000000000602082015250565b60006140e7602583612e7f565b91506140f28261408b565b604082019050919050565b60006020820190508181036000830152614116816140da565b9050919050565b7f4552433732313a207472616e7366657220746f20746865207a65726f2061646460008201527f7265737300000000000000000000000000000000000000000000000000000000602082015250565b6000614179602483612e7f565b91506141848261411d565b604082019050919050565b600060208201905081810360008301526141a88161416c565b9050919050565b60006141ba82612dc7565b91506141c583612dc7565b9250827fffffffffffffffffffffffffffffffffffffffffffffffffffffffffffffffff038211156141fa576141f9613ed6565b5b828201905092915050565b7f4552433732313a20617070726f766520746f2063616c6c657200000000000000600082015250565b600061423b601983612e7f565b915061424682614205565b602082019050919050565b6000602082019050818103600083015261426a8161422e565b9050919050565b7f4552433732313a207472616e7366657220746f206e6f6e20455243373231526560008201527f63656976657220696d706c656d656e7465720000000000000000000000000000602082015250565b60006142cd603283612e7f565b91506142d882614271565b604082019050919050565b600060208201905081810360008301526142fc816142c0565b9050919050565b600061430e82612dc7565b91507fffffffffffffffffffffffffffffffffffffffffffffffffffffffffffffffff82141561434157614340613ed6565b5b600182019050919050565b7f4e487b7100000000000000000000000000000000000000000000000000000000600052601260045260246000fd5b600061438682612dc7565b915061439183612dc7565b9250826143a1576143a061434c565b5b828204905092915050565b60006143b782612dc7565b91506143c283612dc7565b9250826143d2576143d161434c565b5b828206905092915050565b60006143e882612dc7565b91506143f383612dc7565b9250817fffffffffffffffffffffffffffffffffffffffffffffffffffffffffffffffff048311821515161561442c5761442b613ed6565b5b828202905092915050565b600060808201905081810360008301526144518187612e90565b905081810360208301526144658186612e90565b9050614474604083018561308c565b614481606083018461308c565b95945050505050565b600060408201905081810360008301526144a48185612e90565b90506144b3602083018461308c565b9392505050565b600060608201905081810360008301526144d48186612e90565b90506144e3602083018561308c565b6144f0604083018461308c565b949350505050565b600081519050919050565b600082825260208201905092915050565b600061451f826144f8565b6145298185614503565b9350614539818560208601612d4a565b61454281612d7d565b840191505092915050565b60006080820190506145626000830187612f76565b61456f6020830186612f76565b61457c604083018561308c565b818103606083015261458e8184614514565b905095945050505050565b6000815190506145a881612c9f565b92915050565b6000602082840312156145c4576145c3612c69565b5b60006145d284828501614599565b91505092915050565b7f4552433732313a206d696e7420746f20746865207a65726f2061646472657373600082015250565b6000614611602083612e7f565b915061461c826145db565b602082019050919050565b6000602082019050818103600083015261464081614604565b9050919050565b7f4552433732313a20746f6b656e20616c7265616479206d696e74656400000000600082015250565b600061467d601c83612e7f565b915061468882614647565b602082019050919050565b600060208201905081810360008301526146ac81614670565b905091905056fe506c617965722061747461636b656420626f73732e204e657720626f73732068703a2025734142434445464748494a4b4c4d4e4f505152535455565758595a6162636465666768696a6b6c6d6e6f707172737475767778797a303132333435363738392b2f426f73732061747461636b656420706c617965722e204e657720706c617965722068703a2025730a4d696e746564204e465420772f20746f6b656e496420257320616e6420636861726163746572496e6465782025730a506c6179657220772f206368617261637465722025732061626f757420746f2061747461636b2e2048617320257320485020616e64202573204144a2646970667358221220f7832d2216b8b2a9acee71983004ec8b67889ae8fbeb9353bf028370f3b221f564736f6c634300080a0033446f6e6520696e697469616c697a696e6720257320772f2048502025732c20696d67202573446f6e6520696e697469616c697a696e6720626f737320257320772f2048502025732c20696d67202573",
  "linkReferences": {},
  "deployedLinkReferences": {}
}